{
  "contractName": "Destructible",
  "abi": [
    {
      "inputs": [],
      "stateMutability": "payable",
      "type": "constructor",
      "payable": true
    },
    {
      "anonymous": false,
      "inputs": [
        {
          "indexed": true,
          "internalType": "address",
          "name": "_currentOwner",
          "type": "address"
        },
        {
          "indexed": true,
          "internalType": "address",
          "name": "_newOwner",
          "type": "address"
        }
      ],
      "name": "LogOwnershipTransferred",
      "type": "event"
    },
    {
      "inputs": [],
      "name": "owner",
      "outputs": [
        {
          "internalType": "address",
          "name": "",
          "type": "address"
        }
      ],
      "stateMutability": "view",
      "type": "function",
      "constant": true
    },
    {
      "inputs": [],
      "name": "destroy",
      "outputs": [],
      "stateMutability": "nonpayable",
      "type": "function"
    },
    {
      "inputs": [
        {
          "internalType": "address payable",
          "name": "_recipient",
          "type": "address"
        }
      ],
      "name": "destroyAndSend",
      "outputs": [],
      "stateMutability": "nonpayable",
      "type": "function"
    }
  ],
  "bytecode": "0x6080604052336000806101000a81548173ffffffffffffffffffffffffffffffffffffffff021916908373ffffffffffffffffffffffffffffffffffffffff160217905550610386806100536000396000f3fe608060405234801561001057600080fd5b50600436106100415760003560e01c806383197ef0146100465780638da5cb5b14610050578063f5074f411461006e575b600080fd5b61004e61008a565b005b610058610151565b60405161006591906102a9565b60405180910390f35b61008860048036038101906100839190610231565b610175565b005b60008054906101000a900473ffffffffffffffffffffffffffffffffffffffff1673ffffffffffffffffffffffffffffffffffffffff163373ffffffffffffffffffffffffffffffffffffffff1614610118576040517f08c379a000000000000000000000000000000000000000000000000000000000815260040161010f906102c4565b60405180910390fd5b60008054906101000a900473ffffffffffffffffffffffffffffffffffffffff1673ffffffffffffffffffffffffffffffffffffffff16ff5b60008054906101000a900473ffffffffffffffffffffffffffffffffffffffff1681565b60008054906101000a900473ffffffffffffffffffffffffffffffffffffffff1673ffffffffffffffffffffffffffffffffffffffff163373ffffffffffffffffffffffffffffffffffffffff1614610203576040517f08c379a00000000000000000000000000000000000000000000000000000000081526004016101fa906102c4565b60405180910390fd5b8073ffffffffffffffffffffffffffffffffffffffff16ff5b60008135905061022b81610339565b92915050565b60006020828403121561024357600080fd5b60006102518482850161021c565b91505092915050565b610263816102f5565b82525050565b60006102766017836102e4565b91507f43616c6c6572206973206e6f7420746865206f776e65720000000000000000006000830152602082019050919050565b60006020820190506102be600083018461025a565b92915050565b600060208201905081810360008301526102dd81610269565b9050919050565b600082825260208201905092915050565b600061030082610319565b9050919050565b600061031282610319565b9050919050565b600073ffffffffffffffffffffffffffffffffffffffff82169050919050565b61034281610307565b811461034d57600080fd5b5056fea2646970667358221220397ffd08de981669abdb4a5e32e1bde1212fe1d32bec29caf6c7e6001df6840064736f6c63430008000033",
  "immutableReferences": {},
  "source": "// SPDX-License-Identifier: MIT\npragma solidity ^0.8.0;\n\nimport './Ownable.sol';\n\n/** @title Destructible contract.\n * Allows the contract to be destroyed by its owner.\n */\ncontract Destructible is Ownable {\n\n    constructor() payable Ownable() { }\n\n    /** @dev Destroys the contract and sends remaining funds to the owner. */\n    function destroy() public onlyOwner {\n        selfdestruct(payable(owner));\n    }\n    \n    /** @dev Destroys the contract and sends remaining funds to a specified address.\n     * @param _recipient The address to receive the remaining funds.\n     */\n    function destroyAndSend(address payable _recipient) public onlyOwner {\n        selfdestruct(_recipient);\n    }\n}\n\n",
  "sourcePath": "/home/vijay/Desktop/p2p-lending/smart-contracts/contracts/common/Destructible.sol",
  "compiler": {
    "name": "solc",
    "version": "0.8.0+commit.c7dfd78e.Emscripten.clang"
  },
  "schemaVersion": "3.4.16",
  "updatedAt": "2024-08-28T08:32:26.229Z",
  "networkType": "ethereum",
  "devdoc": {
    "kind": "dev",
    "methods": {
      "destroy()": {
        "details": "Destroys the contract and sends remaining funds to the owner. "
      },
      "destroyAndSend(address)": {
        "details": "Destroys the contract and sends remaining funds to a specified address.",
        "params": {
          "_recipient": "The address to receive the remaining funds."
        }
      }
    },
    "title": "Destructible contract. Allows the contract to be destroyed by its owner.",
    "version": 1
  },
  "userdoc": {
    "kind": "user",
    "methods": {},
    "version": 1
  }
}