{
  "contractName": "Ownable",
  "abi": [
    {
      "inputs": [],
      "stateMutability": "nonpayable",
      "type": "constructor"
    },
    {
      "anonymous": false,
      "inputs": [
        {
          "indexed": true,
          "internalType": "address",
          "name": "_currentOwner",
          "type": "address"
        },
        {
          "indexed": true,
          "internalType": "address",
          "name": "_newOwner",
          "type": "address"
        }
      ],
      "name": "LogOwnershipTransferred",
      "type": "event"
    },
    {
      "inputs": [],
      "name": "owner",
      "outputs": [
        {
          "internalType": "address",
          "name": "",
          "type": "address"
        }
      ],
      "stateMutability": "view",
      "type": "function",
      "constant": true
    }
  ],
  "bytecode": "0x608060405234801561001057600080fd5b50336000806101000a81548173ffffffffffffffffffffffffffffffffffffffff021916908373ffffffffffffffffffffffffffffffffffffffff16021790555060f78061005f6000396000f3fe6080604052348015600f57600080fd5b506004361060285760003560e01c80638da5cb5b14602d575b600080fd5b60336047565b604051603e91906078565b60405180910390f35b60008054906101000a900473ffffffffffffffffffffffffffffffffffffffff1681565b6072816091565b82525050565b6000602082019050608b6000830184606b565b92915050565b6000609a8260a1565b9050919050565b600073ffffffffffffffffffffffffffffffffffffffff8216905091905056fea264697066735822122075178858b404e8aae40295b5dffa20c201ae007d5140abe3baed8e888eef543b64736f6c63430008000033",
  "immutableReferences": {},
  "source": "// SPDX-License-Identifier: MIT\npragma solidity ^0.8.0;\n\n/** @title Ownable contract.\n  * Provides basic authorization control functions, simplifying the implementation of user permissions.\n  */\ncontract Ownable {\n    address public owner;\n\n    event LogOwnershipTransferred(address indexed _currentOwner, address indexed _newOwner);\n\n    /** @dev Constructor sets the initial owner of the contract. */\n    constructor() {\n        owner = msg.sender;\n    }\n\n    /** @dev Modifier to restrict functions to the contract owner. */\n    modifier onlyOwner() {\n        require(msg.sender == owner, \"Caller is not the owner\");\n        _;\n    }\n\n    /** @dev Transfers ownership to a new address.\n      * This functionality is commented out to prevent unintended changes.\n      * Uncomment to allow ownership transfer.\n      * @param _newOwner The address of the new owner.\n      */\n    /* function transferOwnership(address _newOwner) public onlyOwner {\n        require(_newOwner != address(0), \"New owner is the zero address\");\n        emit LogOwnershipTransferred(owner, _newOwner);\n        owner = _newOwner;\n    } */\n}\n\n",
  "sourcePath": "/home/vijay/Desktop/p2p-lending/smart-contracts/contracts/common/Ownable.sol",
  "compiler": {
    "name": "solc",
    "version": "0.8.0+commit.c7dfd78e.Emscripten.clang"
  },
  "schemaVersion": "3.4.16",
  "updatedAt": "2024-08-28T08:32:26.231Z",
  "networkType": "ethereum",
  "devdoc": {
    "kind": "dev",
    "methods": {
      "constructor": {
        "details": "Constructor sets the initial owner of the contract. "
      }
    },
    "title": "Ownable contract. Provides basic authorization control functions, simplifying the implementation of user permissions.",
    "version": 1
  },
  "userdoc": {
    "kind": "user",
    "methods": {},
    "version": 1
  }
}