{
  "contractName": "PeerToPeerLending",
  "abi": [
    {
      "inputs": [],
      "stateMutability": "nonpayable",
      "type": "constructor"
    },
    {
      "anonymous": false,
      "inputs": [
        {
          "indexed": true,
          "internalType": "address",
          "name": "creditAddress",
          "type": "address"
        },
        {
          "indexed": true,
          "internalType": "bool",
          "name": "active",
          "type": "bool"
        },
        {
          "indexed": true,
          "internalType": "uint256",
          "name": "timestamp",
          "type": "uint256"
        }
      ],
      "name": "LogCreditActiveChanged",
      "type": "event"
    },
    {
      "anonymous": false,
      "inputs": [
        {
          "indexed": true,
          "internalType": "address",
          "name": "creditAddress",
          "type": "address"
        },
        {
          "indexed": true,
          "internalType": "address",
          "name": "borrower",
          "type": "address"
        },
        {
          "indexed": true,
          "internalType": "uint256",
          "name": "timestamp",
          "type": "uint256"
        }
      ],
      "name": "LogCreditCreated",
      "type": "event"
    },
    {
      "anonymous": false,
      "inputs": [
        {
          "indexed": true,
          "internalType": "address",
          "name": "creditAddress",
          "type": "address"
        },
        {
          "indexed": true,
          "internalType": "enum Credit.State",
          "name": "state",
          "type": "uint8"
        },
        {
          "indexed": true,
          "internalType": "uint256",
          "name": "timestamp",
          "type": "uint256"
        }
      ],
      "name": "LogCreditStateChanged",
      "type": "event"
    },
    {
      "anonymous": false,
      "inputs": [
        {
          "indexed": true,
          "internalType": "address",
          "name": "_currentOwner",
          "type": "address"
        },
        {
          "indexed": true,
          "internalType": "address",
          "name": "_newOwner",
          "type": "address"
        }
      ],
      "name": "LogOwnershipTransferred",
      "type": "event"
    },
    {
      "anonymous": false,
      "inputs": [
        {
          "indexed": true,
          "internalType": "address",
          "name": "borrower",
          "type": "address"
        },
        {
          "indexed": false,
          "internalType": "bool",
          "name": "fraudStatus",
          "type": "bool"
        },
        {
          "indexed": false,
          "internalType": "uint256",
          "name": "timestamp",
          "type": "uint256"
        }
      ],
      "name": "LogUserSetFraud",
      "type": "event"
    },
    {
      "inputs": [
        {
          "internalType": "uint256",
          "name": "",
          "type": "uint256"
        }
      ],
      "name": "credits",
      "outputs": [
        {
          "internalType": "address",
          "name": "",
          "type": "address"
        }
      ],
      "stateMutability": "view",
      "type": "function",
      "constant": true
    },
    {
      "inputs": [],
      "name": "destroy",
      "outputs": [],
      "stateMutability": "nonpayable",
      "type": "function"
    },
    {
      "inputs": [
        {
          "internalType": "address payable",
          "name": "_recipient",
          "type": "address"
        }
      ],
      "name": "destroyAndSend",
      "outputs": [],
      "stateMutability": "nonpayable",
      "type": "function"
    },
    {
      "inputs": [],
      "name": "owner",
      "outputs": [
        {
          "internalType": "address",
          "name": "",
          "type": "address"
        }
      ],
      "stateMutability": "view",
      "type": "function",
      "constant": true
    },
    {
      "inputs": [
        {
          "internalType": "address",
          "name": "",
          "type": "address"
        }
      ],
      "name": "users",
      "outputs": [
        {
          "internalType": "bool",
          "name": "credited",
          "type": "bool"
        },
        {
          "internalType": "address",
          "name": "activeCredit",
          "type": "address"
        },
        {
          "internalType": "bool",
          "name": "fraudStatus",
          "type": "bool"
        }
      ],
      "stateMutability": "view",
      "type": "function",
      "constant": true
    },
    {
      "inputs": [
        {
          "internalType": "uint256",
          "name": "requestedAmount",
          "type": "uint256"
        },
        {
          "internalType": "uint256",
          "name": "repaymentsCount",
          "type": "uint256"
        },
        {
          "internalType": "uint256",
          "name": "interest",
          "type": "uint256"
        },
        {
          "internalType": "bytes32",
          "name": "creditDescription",
          "type": "bytes32"
        }
      ],
      "name": "applyForCredit",
      "outputs": [
        {
          "internalType": "address",
          "name": "_credit",
          "type": "address"
        }
      ],
      "stateMutability": "nonpayable",
      "type": "function"
    },
    {
      "inputs": [],
      "name": "getCredits",
      "outputs": [
        {
          "internalType": "address[]",
          "name": "",
          "type": "address[]"
        }
      ],
      "stateMutability": "view",
      "type": "function",
      "constant": true
    },
    {
      "inputs": [],
      "name": "getUserCredits",
      "outputs": [
        {
          "internalType": "address[]",
          "name": "",
          "type": "address[]"
        }
      ],
      "stateMutability": "view",
      "type": "function",
      "constant": true
    },
    {
      "inputs": [
        {
          "internalType": "address",
          "name": "_borrower",
          "type": "address"
        }
      ],
      "name": "setFraudStatus",
      "outputs": [
        {
          "internalType": "bool",
          "name": "",
          "type": "bool"
        }
      ],
      "stateMutability": "nonpayable",
      "type": "function"
    },
    {
      "inputs": [
        {
          "internalType": "contract Credit",
          "name": "_credit",
          "type": "address"
        },
        {
          "internalType": "enum Credit.State",
          "name": "state",
          "type": "uint8"
        }
      ],
      "name": "changeCreditState",
      "outputs": [],
      "stateMutability": "nonpayable",
      "type": "function"
    },
    {
      "inputs": [
        {
          "internalType": "contract Credit",
          "name": "_credit",
          "type": "address"
        }
      ],
      "name": "toggleCreditActiveState",
      "outputs": [],
      "stateMutability": "nonpayable",
      "type": "function"
    }
  ],
  "bytecode": "0x608060405234801561001057600080fd5b50336000806101000a81548173ffffffffffffffffffffffffffffffffffffffff021916908373ffffffffffffffffffffffffffffffffffffffff16021790555061553a806100606000396000f3fe60806040523480156200001157600080fd5b5060043610620000b85760003560e01c80638da5cb5b116200007b5780638da5cb5b1462000163578063a87430ba1462000185578063bb9e424714620001bd578063ebb5d8ed14620001f3578063f5074f411462000229578063fa838e54146200024957620000b8565b8063036a1c2214620000bd5780632092cb3314620000f3578063725172aa1462000115578063823a71af146200013557806383197ef01462000157575b600080fd5b620000db6004803603810190620000d591906200105c565b62000269565b604051620000ea91906200130c565b60405180910390f35b620000fd620002a9565b6040516200010c919062001329565b60405180910390f35b6200013360048036038101906200012d919062000fef565b62000379565b005b6200013f620004dd565b6040516200014e919062001329565b60405180910390f35b620001616200056d565b005b6200016d62000637565b6040516200017c91906200130c565b60405180910390f35b620001a360048036038101906200019d919062000f6b565b6200065b565b604051620001b4939291906200136a565b60405180910390f35b620001db6004803603810190620001d5919062000f6b565b620006bf565b604051620001ea91906200134d565b60405180910390f35b6200021160048036038101906200020b919062001088565b62000809565b6040516200022091906200130c565b60405180910390f35b62000247600480360381019062000241919062000f97565b62000c90565b005b6200026760048036038101906200026191906200101b565b62000d3a565b005b600281815481106200027a57600080fd5b906000526020600020016000915054906101000a900473ffffffffffffffffffffffffffffffffffffffff1681565b6060600160003373ffffffffffffffffffffffffffffffffffffffff1673ffffffffffffffffffffffffffffffffffffffff1681526020019081526020016000206001018054806020026020016040519081016040528092919081815260200182805480156200036f57602002820191906000526020600020905b8160009054906101000a900473ffffffffffffffffffffffffffffffffffffffff1673ffffffffffffffffffffffffffffffffffffffff168152602001906001019080831162000324575b5050505050905090565b60008054906101000a900473ffffffffffffffffffffffffffffffffffffffff1673ffffffffffffffffffffffffffffffffffffffff163373ffffffffffffffffffffffffffffffffffffffff16146200040a576040517f08c379a00000000000000000000000000000000000000000000000000000000081526004016200040190620013f1565b60405180910390fd5b60008173ffffffffffffffffffffffffffffffffffffffff166329c68dc16040518163ffffffff1660e01b8152600401602060405180830381600087803b1580156200045557600080fd5b505af11580156200046a573d6000803e3d6000fd5b505050506040513d601f19601f8201168201806040525081019062000490919062000fc3565b9050428115158373ffffffffffffffffffffffffffffffffffffffff167f25270acf0eab637903a9cd906e32d2ac17ce44db6c743ba5812f2924e84ff8d660405160405180910390a45050565b606060028054806020026020016040519081016040528092919081815260200182805480156200056357602002820191906000526020600020905b8160009054906101000a900473ffffffffffffffffffffffffffffffffffffffff1673ffffffffffffffffffffffffffffffffffffffff168152602001906001019080831162000518575b5050505050905090565b60008054906101000a900473ffffffffffffffffffffffffffffffffffffffff1673ffffffffffffffffffffffffffffffffffffffff163373ffffffffffffffffffffffffffffffffffffffff1614620005fe576040517f08c379a0000000000000000000000000000000000000000000000000000000008152600401620005f590620013f1565b60405180910390fd5b60008054906101000a900473ffffffffffffffffffffffffffffffffffffffff1673ffffffffffffffffffffffffffffffffffffffff16ff5b60008054906101000a900473ffffffffffffffffffffffffffffffffffffffff1681565b60016020528060005260406000206000915090508060000160009054906101000a900460ff16908060000160019054906101000a900473ffffffffffffffffffffffffffffffffffffffff16908060000160159054906101000a900460ff16905083565b60008060009054906101000a900473ffffffffffffffffffffffffffffffffffffffff1673ffffffffffffffffffffffffffffffffffffffff163373ffffffffffffffffffffffffffffffffffffffff161462000753576040517f08c379a00000000000000000000000000000000000000000000000000000000081526004016200074a90620013f1565b60405180910390fd5b60018060008473ffffffffffffffffffffffffffffffffffffffff1673ffffffffffffffffffffffffffffffffffffffff16815260200190815260200160002060000160156101000a81548160ff0219169083151502179055508173ffffffffffffffffffffffffffffffffffffffff167fbafb199a9909a7be73ceeaf6193dc9ea119ef469120d998d5f550140c0b13b54600142604051620007f8929190620013a7565b60405180910390a260019050919050565b6000600160003373ffffffffffffffffffffffffffffffffffffffff1673ffffffffffffffffffffffffffffffffffffffff16815260200190815260200160002060000160009054906101000a900460ff16156200089e576040517f08c379a0000000000000000000000000000000000000000000000000000000008152600401620008959062001457565b60405180910390fd5b600160003373ffffffffffffffffffffffffffffffffffffffff1673ffffffffffffffffffffffffffffffffffffffff16815260200190815260200160002060000160159054906101000a900460ff161562000931576040517f08c379a0000000000000000000000000000000000000000000000000000000008152600401620009289062001435565b60405180910390fd5b600073ffffffffffffffffffffffffffffffffffffffff16600160003373ffffffffffffffffffffffffffffffffffffffff1673ffffffffffffffffffffffffffffffffffffffff16815260200190815260200160002060000160019054906101000a900473ffffffffffffffffffffffffffffffffffffffff1673ffffffffffffffffffffffffffffffffffffffff161462000a05576040517f08c379a0000000000000000000000000000000000000000000000000000000008152600401620009fc9062001413565b60405180910390fd5b60008585858560405162000a199062000ebc565b62000a28949392919062001479565b604051809103906000f08015801562000a45573d6000803e3d6000fd5b50905060018060003373ffffffffffffffffffffffffffffffffffffffff1673ffffffffffffffffffffffffffffffffffffffff16815260200190815260200160002060000160006101000a81548160ff02191690831515021790555080600160003373ffffffffffffffffffffffffffffffffffffffff1673ffffffffffffffffffffffffffffffffffffffff16815260200190815260200160002060000160016101000a81548173ffffffffffffffffffffffffffffffffffffffff021916908373ffffffffffffffffffffffffffffffffffffffff1602179055506002819080600181540180825580915050600190039060005260206000200160009091909190916101000a81548173ffffffffffffffffffffffffffffffffffffffff021916908373ffffffffffffffffffffffffffffffffffffffff160217905550600160003373ffffffffffffffffffffffffffffffffffffffff1673ffffffffffffffffffffffffffffffffffffffff168152602001908152602001600020600101819080600181540180825580915050600190039060005260206000200160009091909190916101000a81548173ffffffffffffffffffffffffffffffffffffffff021916908373ffffffffffffffffffffffffffffffffffffffff160217905550423373ffffffffffffffffffffffffffffffffffffffff168273ffffffffffffffffffffffffffffffffffffffff167fa0c75b76492543c8eafdc7e35272287bd6f229dcf0f6c22429343044718c510860405160405180910390a480915050949350505050565b60008054906101000a900473ffffffffffffffffffffffffffffffffffffffff1673ffffffffffffffffffffffffffffffffffffffff163373ffffffffffffffffffffffffffffffffffffffff161462000d21576040517f08c379a000000000000000000000000000000000000000000000000000000000815260040162000d1890620013f1565b60405180910390fd5b8073ffffffffffffffffffffffffffffffffffffffff16ff5b60008054906101000a900473ffffffffffffffffffffffffffffffffffffffff1673ffffffffffffffffffffffffffffffffffffffff163373ffffffffffffffffffffffffffffffffffffffff161462000dcb576040517f08c379a000000000000000000000000000000000000000000000000000000000815260040162000dc290620013f1565b60405180910390fd5b8173ffffffffffffffffffffffffffffffffffffffff1663268f1153826040518263ffffffff1660e01b815260040162000e069190620013d4565b600060405180830381600087803b15801562000e2157600080fd5b505af115801562000e36573d6000803e3d6000fd5b505050504281600581111562000e75577f4e487b7100000000000000000000000000000000000000000000000000000000600052602160045260246000fd5b8373ffffffffffffffffffffffffffffffffffffffff167f9ae5127f6d87e374b5901ce23a9467e504811c54c03dda8741ad44a35a36146660405160405180910390a45050565b613e5c80620016a983390190565b60008135905062000edb81620015fb565b92915050565b60008135905062000ef28162001615565b92915050565b60008151905062000f09816200162f565b92915050565b60008135905062000f208162001649565b92915050565b60008135905062000f378162001663565b92915050565b60008135905062000f4e816200167d565b92915050565b60008135905062000f65816200168e565b92915050565b60006020828403121562000f7e57600080fd5b600062000f8e8482850162000eca565b91505092915050565b60006020828403121562000faa57600080fd5b600062000fba8482850162000ee1565b91505092915050565b60006020828403121562000fd657600080fd5b600062000fe68482850162000ef8565b91505092915050565b6000602082840312156200100257600080fd5b6000620010128482850162000f26565b91505092915050565b600080604083850312156200102f57600080fd5b60006200103f8582860162000f26565b9250506020620010528582860162000f3d565b9150509250929050565b6000602082840312156200106f57600080fd5b60006200107f8482850162000f54565b91505092915050565b600080600080608085870312156200109f57600080fd5b6000620010af8782880162000f54565b9450506020620010c28782880162000f54565b9350506040620010d58782880162000f54565b9250506060620010e88782880162000f0f565b91505092959194509250565b60006200110283836200110e565b60208301905092915050565b620011198162001510565b82525050565b6200112a8162001510565b82525050565b60006200113d82620014d6565b620011498185620014ee565b93506200115683620014c6565b8060005b838110156200118d578151620011718882620010f4565b97506200117e83620014e1565b9250506001810190506200115a565b5085935050505092915050565b620011a58162001538565b82525050565b620011b68162001544565b82525050565b620011c781620015a1565b82525050565b6000620011dc601783620014ff565b91507f43616c6c6572206973206e6f7420746865206f776e65720000000000000000006000830152602082019050919050565b60006200121e602183620014ff565b91507f5573657220616c72656164792068617320616e2061637469766520637265646960008301527f74000000000000000000000000000000000000000000000000000000000000006020830152604082019050919050565b600062001286601783620014ff565b91507f55736572206973206d61726b65642061732066726175640000000000000000006000830152602082019050919050565b6000620012c8601583620014ff565b91507f5573657220616c726561647920637265646974656400000000000000000000006000830152602082019050919050565b620013068162001597565b82525050565b60006020820190506200132360008301846200111f565b92915050565b6000602082019050818103600083015262001345818462001130565b905092915050565b60006020820190506200136460008301846200119a565b92915050565b60006060820190506200138160008301866200119a565b6200139060208301856200111f565b6200139f60408301846200119a565b949350505050565b6000604082019050620013be60008301856200119a565b620013cd6020830184620012fb565b9392505050565b6000602082019050620013eb6000830184620011bc565b92915050565b600060208201905081810360008301526200140c81620011cd565b9050919050565b600060208201905081810360008301526200142e816200120f565b9050919050565b60006020820190508181036000830152620014508162001277565b9050919050565b600060208201905081810360008301526200147281620012b9565b9050919050565b6000608082019050620014906000830187620012fb565b6200149f6020830186620012fb565b620014ae6040830185620012fb565b620014bd6060830184620011ab565b95945050505050565b6000819050602082019050919050565b600081519050919050565b6000602082019050919050565b600082825260208201905092915050565b600082825260208201905092915050565b60006200151d8262001577565b9050919050565b6000620015318262001577565b9050919050565b60008115159050919050565b6000819050919050565b60006200155b8262001510565b9050919050565b60008190506200157282620015e4565b919050565b600073ffffffffffffffffffffffffffffffffffffffff82169050919050565b6000819050919050565b6000620015ae8262001562565b9050919050565b7f4e487b7100000000000000000000000000000000000000000000000000000000600052602160045260246000fd5b60068110620015f857620015f7620015b5565b5b50565b620016068162001510565b81146200161257600080fd5b50565b620016208162001524565b81146200162c57600080fd5b50565b6200163a8162001538565b81146200164657600080fd5b50565b620016548162001544565b81146200166057600080fd5b50565b6200166e816200154e565b81146200167a57600080fd5b50565b600681106200168b57600080fd5b50565b620016998162001597565b8114620016a557600080fd5b5056fe60806040526001600c60006101000a81548160ff0219169083151502179055506000600f55600060105562015180426200003a919062000411565b60125560006013553480156200004f57600080fd5b5060405162003e5c38038062003e5c8339818101604052810190620000759190620002cc565b336000806101000a81548173ffffffffffffffffffffffffffffffffffffffff021916908373ffffffffffffffffffffffffffffffffffffffff16021790555032600160006101000a81548173ffffffffffffffffffffffffffffffffffffffff021916908373ffffffffffffffffffffffffffffffffffffffff1602179055508160058190555083600281905550826006819055508260078190555062000130600554600254620001d860201b620026851790919060201c565b600381905550620001546006546003546200023b60201b620026e31790919060201c565b60088190555080600b819055504260098190555042600160009054906101000a900473ffffffffffffffffffffffffffffffffffffffff1673ffffffffffffffffffffffffffffffffffffffff167ff9f75c99c0e3522cd19ffc66fd6c94989a3f0821d37d5c5bb176aab904c6335d60405160405180910390a3505050506200054c565b6000808284620001e9919062000411565b90508381101562000231576040517f08c379a00000000000000000000000000000000000000000000000000000000081526004016200022890620003bc565b60405180910390fd5b8091505092915050565b600080821162000282576040517f08c379a00000000000000000000000000000000000000000000000000000000081526004016200027990620003de565b60405180910390fd5b600082846200029291906200046e565b90508091505092915050565b600081519050620002af8162000518565b92915050565b600081519050620002c68162000532565b92915050565b60008060008060808587031215620002e357600080fd5b6000620002f387828801620002b5565b94505060206200030687828801620002b5565b93505060406200031987828801620002b5565b92505060606200032c878288016200029e565b91505092959194509250565b600062000347601b8362000400565b91507f536166654d6174683a206164646974696f6e206f766572666c6f7700000000006000830152602082019050919050565b600062000389601a8362000400565b91507f536166654d6174683a206469766973696f6e206279207a65726f0000000000006000830152602082019050919050565b60006020820190508181036000830152620003d78162000338565b9050919050565b60006020820190508181036000830152620003f9816200037a565b9050919050565b600082825260208201905092915050565b60006200041e82620004b0565b91506200042b83620004b0565b9250827fffffffffffffffffffffffffffffffffffffffffffffffffffffffffffffffff03821115620004635762000462620004ba565b5b828201905092915050565b60006200047b82620004b0565b91506200048883620004b0565b9250826200049b576200049a620004e9565b5b828204905092915050565b6000819050919050565b6000819050919050565b7f4e487b7100000000000000000000000000000000000000000000000000000000600052601160045260246000fd5b7f4e487b7100000000000000000000000000000000000000000000000000000000600052601260045260246000fd5b6200052381620004a6565b81146200052f57600080fd5b50565b6200053d81620004b0565b81146200054957600080fd5b50565b613900806200055c6000396000f3fe6080604052600436106102045760003560e01c806383197ef011610118578063d85da7b6116100a0578063f06817cf1161006f578063f06817cf146106a1578063f35eeaef146106d6578063f5074f4114610701578063f98b80281461072a578063fbaa78f31461075557610204565b8063d85da7b61461062a578063e8b5e51f14610655578063e8bb52991461065f578063efd475ab1461068a57610204565b8063b01a2adf116100e7578063b01a2adf1461052f578063b99bea241461056c578063c19d93fb14610597578063c392f766146105c2578063d10f6630146105ed57610204565b806383197ef0146104975780638da5cb5b146104ae5780639366b60d146104d95780639381ab251461050457610204565b806343c14b221161019b5780637284e4161161016a5780637284e416146103c057806376adf71e146103eb57806378860268146104165780637c03afcd146104415780637df1f1b91461046c57610204565b806343c14b221461033c57806347505b5d1461035357806348c219471461037e578063590e1ae3146103a957610204565b806328fd10d7116101d757806328fd10d7146102b357806329c68dc1146102f05780633ccfd60b1461031b578063402d88831461033257610204565b806302fb0c5e1461020957806312065fe014610234578063162fce691461025f578063268f11531461028a575b600080fd5b34801561021557600080fd5b5061021e610792565b60405161022b9190613297565b60405180910390f35b34801561024057600080fd5b506102496107a5565b60405161025691906135a8565b60405180910390f35b34801561026b57600080fd5b506102746107ad565b60405161028191906135a8565b60405180910390f35b34801561029657600080fd5b506102b160048036038101906102ac9190612afd565b6107b3565b005b3480156102bf57600080fd5b506102da60048036038101906102d59190612a82565b610909565b6040516102e79190613297565b60405180910390f35b3480156102fc57600080fd5b50610305610929565b6040516103129190613297565b60405180910390f35b34801561032757600080fd5b50610330610a38565b005b61033a610d94565b005b34801561034857600080fd5b506103516111d6565b005b34801561035f57600080fd5b50610368611510565b60405161037591906135a8565b60405180910390f35b34801561038a57600080fd5b50610393611516565b6040516103a091906135a8565b60405180910390f35b3480156103b557600080fd5b506103be61151c565b005b3480156103cc57600080fd5b506103d5611971565b6040516103e291906132b2565b60405180910390f35b3480156103f757600080fd5b50610400611977565b60405161040d91906135a8565b60405180910390f35b34801561042257600080fd5b5061042b61197d565b60405161043891906135a8565b60405180910390f35b34801561044d57600080fd5b50610456611983565b60405161046391906135a8565b60405180910390f35b34801561047857600080fd5b50610481611989565b60405161048e91906131d1565b60405180910390f35b3480156104a357600080fd5b506104ac6119af565b005b3480156104ba57600080fd5b506104c3611a76565b6040516104d091906131d1565b60405180910390f35b3480156104e557600080fd5b506104ee611a9a565b6040516104fb91906135a8565b60405180910390f35b34801561051057600080fd5b50610519611aa0565b60405161052691906135a8565b60405180910390f35b34801561053b57600080fd5b5061055660048036038101906105519190612a82565b611aa6565b6040516105639190613297565b60405180910390f35b34801561057857600080fd5b50610581611ac6565b60405161058e91906135a8565b60405180910390f35b3480156105a357600080fd5b506105ac611acc565b6040516105b991906132cd565b60405180910390f35b3480156105ce57600080fd5b506105d7611adf565b6040516105e491906135a8565b60405180910390f35b3480156105f957600080fd5b50610614600480360381019061060f9190612a82565b611ae5565b6040516106219190613297565b60405180910390f35b34801561063657600080fd5b5061063f611b05565b60405161064c9190613297565b60405180910390f35b61065d611d46565b005b34801561066b57600080fd5b506106746120f8565b60405161068191906135a8565b60405180910390f35b34801561069657600080fd5b5061069f6120fe565b005b3480156106ad57600080fd5b506106b661252d565b6040516106cd9b9a999897969594939291906131ec565b60405180910390f35b3480156106e257600080fd5b506106eb6125ba565b6040516106f891906135a8565b60405180910390f35b34801561070d57600080fd5b5061072860048036038101906107239190612aab565b6125c0565b005b34801561073657600080fd5b5061073f612667565b60405161074c91906135a8565b60405180910390f35b34801561076157600080fd5b5061077c60048036038101906107779190612a82565b61266d565b60405161078991906135a8565b60405180910390f35b600c60009054906101000a900460ff1681565b600047905090565b60065481565b60008054906101000a900473ffffffffffffffffffffffffffffffffffffffff1673ffffffffffffffffffffffffffffffffffffffff163373ffffffffffffffffffffffffffffffffffffffff1614610841576040517f08c379a0000000000000000000000000000000000000000000000000000000008152600401610838906132e8565b60405180910390fd5b80600c60016101000a81548160ff0219169083600581111561088c577f4e487b7100000000000000000000000000000000000000000000000000000000600052602160045260246000fd5b021790555042600c60019054906101000a900460ff1660058111156108da577f4e487b7100000000000000000000000000000000000000000000000000000000600052602160045260246000fd5b7faaae373901e745122c2e0925ad006227969c6cd190b7d5ea2fb7fdbd1d955b3560405160405180910390a350565b600d6020528060005260406000206000915054906101000a900460ff1681565b60008060009054906101000a900473ffffffffffffffffffffffffffffffffffffffff1673ffffffffffffffffffffffffffffffffffffffff163373ffffffffffffffffffffffffffffffffffffffff16146109ba576040517f08c379a00000000000000000000000000000000000000000000000000000000081526004016109b1906132e8565b60405180910390fd5b600c60009054906101000a900460ff1615600c60006101000a81548160ff02191690831515021790555042600c60009054906101000a900460ff1615157f160914ea27c60aa29a5f3a69d74e6069869de36e38939de1e0a66b921d8623d260405160405180910390a3600c60009054906101000a900460ff16905090565b600c60009054906101000a900460ff16610a87576040517f08c379a0000000000000000000000000000000000000000000000000000000008152600401610a7e906134a8565b60405180910390fd5b600160009054906101000a900473ffffffffffffffffffffffffffffffffffffffff1673ffffffffffffffffffffffffffffffffffffffff163373ffffffffffffffffffffffffffffffffffffffff1614610b17576040517f08c379a0000000000000000000000000000000000000000000000000000000008152600401610b0e906133e8565b60405180910390fd5b600254471015610b5c576040517f08c379a0000000000000000000000000000000000000000000000000000000008152600401610b5390613528565b60405180910390fd5b600580811115610b95577f4e487b7100000000000000000000000000000000000000000000000000000000600052602160045260246000fd5b600c60019054906101000a900460ff166005811115610bdd577f4e487b7100000000000000000000000000000000000000000000000000000000600052602160045260246000fd5b1415610c1e576040517f08c379a0000000000000000000000000000000000000000000000000000000008152600401610c15906134c8565b60405180910390fd5b6001600c60016101000a81548160ff02191690836005811115610c6a577f4e487b7100000000000000000000000000000000000000000000000000000000600052602160045260246000fd5b021790555042600c60019054906101000a900460ff166005811115610cb8577f4e487b7100000000000000000000000000000000000000000000000000000000600052602160045260246000fd5b7faaae373901e745122c2e0925ad006227969c6cd190b7d5ea2fb7fdbd1d955b3560405160405180910390a342473373ffffffffffffffffffffffffffffffffffffffff167f20734f14d107b526674905e470e35d0a474f9fb996a7bdb034c839c8894524e660405160405180910390a4600160009054906101000a900473ffffffffffffffffffffffffffffffffffffffff1673ffffffffffffffffffffffffffffffffffffffff166108fc479081150290604051600060405180830381858888f19350505050158015610d91573d6000803e3d6000fd5b50565b600160009054906101000a900473ffffffffffffffffffffffffffffffffffffffff1673ffffffffffffffffffffffffffffffffffffffff163373ffffffffffffffffffffffffffffffffffffffff1614610e24576040517f08c379a0000000000000000000000000000000000000000000000000000000008152600401610e1b906133e8565b60405180910390fd5b60016005811115610e5e577f4e487b7100000000000000000000000000000000000000000000000000000000600052602160045260246000fd5b600c60019054906101000a900460ff166005811115610ea6577f4e487b7100000000000000000000000000000000000000000000000000000000600052602160045260246000fd5b14610ee6576040517f08c379a0000000000000000000000000000000000000000000000000000000008152600401610edd90613368565b60405180910390fd5b600060075411610f2b576040517f08c379a0000000000000000000000000000000000000000000000000000000008152600401610f2290613568565b60405180910390fd5b600854341015610f70576040517f08c379a0000000000000000000000000000000000000000000000000000000008152600401610f6790613388565b60405180910390fd5b600060085434111561102057610f916008543461274190919063ffffffff16565b90503373ffffffffffffffffffffffffffffffffffffffff166108fc829081150290604051600060405180830381858888f19350505050158015610fd9573d6000803e3d6000fd5b5042813373ffffffffffffffffffffffffffffffffffffffff167f5c9874487a2258c6bd6dc39a2cfcf7ea944b50b79d9a7152668779687b2ebd8d60405160405180910390a45b42611034823461274190919063ffffffff16565b3373ffffffffffffffffffffffffffffffffffffffff167f350a09487d622378c6efbda255f996387696319f803a2e53eee64f7aa70be85a60405160405180910390a461109e61108d823461274190919063ffffffff16565b60045461268590919063ffffffff16565b600481905550600760008154809291906110b790613761565b919050555060035460045414156111d357423373ffffffffffffffffffffffffffffffffffffffff167f25630de45a38a90cbca3a2eb35a8197e51b56d6d912581711e5e3773fe77cabc60405160405180910390a36002600c60016101000a81548160ff02191690836005811115611158577f4e487b7100000000000000000000000000000000000000000000000000000000600052602160045260246000fd5b021790555042600c60019054906101000a900460ff1660058111156111a6577f4e487b7100000000000000000000000000000000000000000000000000000000600052602160045260246000fd5b7faaae373901e745122c2e0925ad006227969c6cd190b7d5ea2fb7fdbd1d955b3560405160405180910390a35b50565b600c60009054906101000a900460ff16611225576040517f08c379a000000000000000000000000000000000000000000000000000000000815260040161121c906134a8565b60405180910390fd5b60125442101561126a576040517f08c379a000000000000000000000000000000000000000000000000000000000815260040161126190613508565b60405180910390fd5b600060058111156112a4577f4e487b7100000000000000000000000000000000000000000000000000000000600052602160045260246000fd5b600c60019054906101000a900460ff1660058111156112ec577f4e487b7100000000000000000000000000000000000000000000000000000000600052602160045260246000fd5b1461132c576040517f08c379a000000000000000000000000000000000000000000000000000000000815260040161132390613328565b60405180910390fd5b600d60003373ffffffffffffffffffffffffffffffffffffffff1673ffffffffffffffffffffffffffffffffffffffff16815260200190815260200160002060009054906101000a900460ff166113b8576040517f08c379a00000000000000000000000000000000000000000000000000000000081526004016113af906134e8565b60405180910390fd5b601160003373ffffffffffffffffffffffffffffffffffffffff1673ffffffffffffffffffffffffffffffffffffffff16815260200190815260200160002060009054906101000a900460ff1615611445576040517f08c379a000000000000000000000000000000000000000000000000000000000815260040161143c90613468565b60405180910390fd5b601060008154809291906114589061378b565b91905055506001601160003373ffffffffffffffffffffffffffffffffffffffff1673ffffffffffffffffffffffffffffffffffffffff16815260200190815260200160002060006101000a81548160ff021916908315150217905550423373ffffffffffffffffffffffffffffffffffffffff167fd7173ce7e4ce6f6d075259ac1a467ab8290db175a2cee8587a663c006b97e12960405160405180910390a3601054600f54141561150e5761150d6127a0565b5b565b60125481565b60085481565b600c60009054906101000a900460ff1661156b576040517f08c379a0000000000000000000000000000000000000000000000000000000008152600401611562906134a8565b60405180910390fd5b600d60003373ffffffffffffffffffffffffffffffffffffffff1673ffffffffffffffffffffffffffffffffffffffff16815260200190815260200160002060009054906101000a900460ff166115f7576040517f08c379a00000000000000000000000000000000000000000000000000000000081526004016115ee906134e8565b60405180910390fd5b60046005811115611631577f4e487b7100000000000000000000000000000000000000000000000000000000600052602160045260246000fd5b600c60019054906101000a900460ff166005811115611679577f4e487b7100000000000000000000000000000000000000000000000000000000600052602160045260246000fd5b146116b9576040517f08c379a00000000000000000000000000000000000000000000000000000000081526004016116b090613548565b60405180910390fd5b600e60003373ffffffffffffffffffffffffffffffffffffffff1673ffffffffffffffffffffffffffffffffffffffff1681526020019081526020016000205447101561173b576040517f08c379a0000000000000000000000000000000000000000000000000000000008152600401611732906133a8565b60405180910390fd5b3373ffffffffffffffffffffffffffffffffffffffff166108fc600e60003373ffffffffffffffffffffffffffffffffffffffff1673ffffffffffffffffffffffffffffffffffffffff168152602001908152602001600020549081150290604051600060405180830381858888f193505050501580156117c0573d6000803e3d6000fd5b5042600e60003373ffffffffffffffffffffffffffffffffffffffff1673ffffffffffffffffffffffffffffffffffffffff168152602001908152602001600020543373ffffffffffffffffffffffffffffffffffffffff167f71e252e33f19f0223f47f27d00910548d26488b9b55cb5b410b75e273152f8d660405160405180910390a4600047141561196f576000600c60006101000a81548160ff02191690831515021790555042600c60009054906101000a900460ff1615157f160914ea27c60aa29a5f3a69d74e6069869de36e38939de1e0a66b921d8623d260405160405180910390a36003600c60016101000a81548160ff021916908360058111156118f4577f4e487b7100000000000000000000000000000000000000000000000000000000600052602160045260246000fd5b021790555042600c60019054906101000a900460ff166005811115611942577f4e487b7100000000000000000000000000000000000000000000000000000000600052602160045260246000fd5b7faaae373901e745122c2e0925ad006227969c6cd190b7d5ea2fb7fdbd1d955b3560405160405180910390a35b565b600b5481565b600f5481565b60025481565b60135481565b600160009054906101000a900473ffffffffffffffffffffffffffffffffffffffff1681565b60008054906101000a900473ffffffffffffffffffffffffffffffffffffffff1673ffffffffffffffffffffffffffffffffffffffff163373ffffffffffffffffffffffffffffffffffffffff1614611a3d576040517f08c379a0000000000000000000000000000000000000000000000000000000008152600401611a34906132e8565b60405180910390fd5b60008054906101000a900473ffffffffffffffffffffffffffffffffffffffff1673ffffffffffffffffffffffffffffffffffffffff16ff5b60008054906101000a900473ffffffffffffffffffffffffffffffffffffffff1681565b600a5481565b60105481565b60116020528060005260406000206000915054906101000a900460ff1681565b60095481565b600c60019054906101000a900460ff1681565b60055481565b60146020528060005260406000206000915054906101000a900460ff1681565b6000600c60009054906101000a900460ff16611b56576040517f08c379a0000000000000000000000000000000000000000000000000000000008152600401611b4d906134a8565b60405180910390fd5b600d60003373ffffffffffffffffffffffffffffffffffffffff1673ffffffffffffffffffffffffffffffffffffffff16815260200190815260200160002060009054906101000a900460ff16611be2576040517f08c379a0000000000000000000000000000000000000000000000000000000008152600401611bd9906134e8565b60405180910390fd5b601460003373ffffffffffffffffffffffffffffffffffffffff1673ffffffffffffffffffffffffffffffffffffffff16815260200190815260200160002060009054906101000a900460ff1615611c6f576040517f08c379a0000000000000000000000000000000000000000000000000000000008152600401611c6690613308565b60405180910390fd5b60136000815480929190611c829061378b565b91905055506001601460003373ffffffffffffffffffffffffffffffffffffffff1673ffffffffffffffffffffffffffffffffffffffff16815260200190815260200160002060006101000a81548160ff021916908315150217905550423373ffffffffffffffffffffffffffffffffffffffff167f1db613004119dde2a638b639fba9960c0e6064ee7c2d06f300e41c78920ed6dc60405160405180910390a3601354600f541415611d3e57611d37612868565b9050611d43565b600190505b90565b60006005811115611d80577f4e487b7100000000000000000000000000000000000000000000000000000000600052602160045260246000fd5b600c60019054906101000a900460ff166005811115611dc8577f4e487b7100000000000000000000000000000000000000000000000000000000600052602160045260246000fd5b14611e08576040517f08c379a0000000000000000000000000000000000000000000000000000000008152600401611dff90613488565b60405180910390fd5b60006002544710611f8757611e286002544761274190919063ffffffff16565b90506000811115611ec0573373ffffffffffffffffffffffffffffffffffffffff166108fc829081150290604051600060405180830381858888f19350505050158015611e79573d6000803e3d6000fd5b5042813373ffffffffffffffffffffffffffffffffffffffff167f566803f6e271b911c84f87631bcd310d6a6510bf8882577a96fc76975703e43160405160405180910390a45b6001600c60016101000a81548160ff02191690836005811115611f0c577f4e487b7100000000000000000000000000000000000000000000000000000000600052602160045260246000fd5b021790555042600c60019054906101000a900460ff166005811115611f5a577f4e487b7100000000000000000000000000000000000000000000000000000000600052602160045260246000fd5b7faaae373901e745122c2e0925ad006227969c6cd190b7d5ea2fb7fdbd1d955b3560405160405180910390a35b6001600d60003373ffffffffffffffffffffffffffffffffffffffff1673ffffffffffffffffffffffffffffffffffffffff16815260200190815260200160002060006101000a81548160ff021916908315150217905550600f6000815480929190611ff29061378b565b919050555061205b61200d823461274190919063ffffffff16565b600e60003373ffffffffffffffffffffffffffffffffffffffff1673ffffffffffffffffffffffffffffffffffffffff1681526020019081526020016000205461268590919063ffffffff16565b600e60003373ffffffffffffffffffffffffffffffffffffffff1673ffffffffffffffffffffffffffffffffffffffff16815260200190815260200160002081905550426120b2823461274190919063ffffffff16565b3373ffffffffffffffffffffffffffffffffffffffff167f1b0969ce7f5b05c5e0969329a05cdbd7e2e2f6cee33ba26fd6e6bbcff82312cd60405160405180910390a450565b60075481565b600c60009054906101000a900460ff1661214d576040517f08c379a0000000000000000000000000000000000000000000000000000000008152600401612144906134a8565b60405180910390fd5b600d60003373ffffffffffffffffffffffffffffffffffffffff1673ffffffffffffffffffffffffffffffffffffffff16815260200190815260200160002060009054906101000a900460ff166121d9576040517f08c379a00000000000000000000000000000000000000000000000000000000081526004016121d0906134e8565b60405180910390fd5b60026005811115612213577f4e487b7100000000000000000000000000000000000000000000000000000000600052602160045260246000fd5b600c60019054906101000a900460ff16600581111561225b577f4e487b7100000000000000000000000000000000000000000000000000000000600052602160045260246000fd5b1461229b576040517f08c379a000000000000000000000000000000000000000000000000000000000815260040161229290613588565b60405180910390fd5b6000600e60003373ffffffffffffffffffffffffffffffffffffffff1673ffffffffffffffffffffffffffffffffffffffff168152602001908152602001600020541161231d576040517f08c379a0000000000000000000000000000000000000000000000000000000008152600401612314906133c8565b60405180910390fd5b6000600f5460035461232f9190613640565b905080471015612374576040517f08c379a000000000000000000000000000000000000000000000000000000000815260040161236b90613428565b60405180910390fd5b3373ffffffffffffffffffffffffffffffffffffffff166108fc829081150290604051600060405180830381858888f193505050501580156123ba573d6000803e3d6000fd5b5042813373ffffffffffffffffffffffffffffffffffffffff167f052f6685df2f773f854b17db1d82e2352e222010daaf8175761f02ef8782c40360405160405180910390a4600047141561252a576000600c60006101000a81548160ff02191690831515021790555042600c60009054906101000a900460ff1615157f160914ea27c60aa29a5f3a69d74e6069869de36e38939de1e0a66b921d8623d260405160405180910390a36003600c60016101000a81548160ff021916908360058111156124af577f4e487b7100000000000000000000000000000000000000000000000000000000600052602160045260246000fd5b021790555042600c60019054906101000a900460ff1660058111156124fd577f4e487b7100000000000000000000000000000000000000000000000000000000600052602160045260246000fd5b7faaae373901e745122c2e0925ad006227969c6cd190b7d5ea2fb7fdbd1d955b3560405160405180910390a35b50565b6000806000806000806000806000806000600160009054906101000a900473ffffffffffffffffffffffffffffffffffffffff16600b54600254600654600854600754600554600354600c60019054906101000a900460ff16600c60009054906101000a900460ff16479a509a509a509a509a509a509a509a509a509a509a50909192939495969798999a565b60035481565b60008054906101000a900473ffffffffffffffffffffffffffffffffffffffff1673ffffffffffffffffffffffffffffffffffffffff163373ffffffffffffffffffffffffffffffffffffffff161461264e576040517f08c379a0000000000000000000000000000000000000000000000000000000008152600401612645906132e8565b60405180910390fd5b8073ffffffffffffffffffffffffffffffffffffffff16ff5b60045481565b600e6020528060005260406000206000915090505481565b600080828461269491906135ea565b9050838110156126d9576040517f08c379a00000000000000000000000000000000000000000000000000000000081526004016126d090613348565b60405180910390fd5b8091505092915050565b6000808211612727576040517f08c379a000000000000000000000000000000000000000000000000000000000815260040161271e90613448565b60405180910390fd5b600082846127359190613640565b90508091505092915050565b600082821115612786576040517f08c379a000000000000000000000000000000000000000000000000000000000815260040161277d90613408565b60405180910390fd5b600082846127949190613671565b90508091505092915050565b6004600c60016101000a81548160ff021916908360058111156127ec577f4e487b7100000000000000000000000000000000000000000000000000000000600052602160045260246000fd5b021790555042600c60019054906101000a900460ff16600581111561283a577f4e487b7100000000000000000000000000000000000000000000000000000000600052602160045260246000fd5b7faaae373901e745122c2e0925ad006227969c6cd190b7d5ea2fb7fdbd1d955b3560405160405180910390a3565b60008060008054906101000a900473ffffffffffffffffffffffffffffffffffffffff1673ffffffffffffffffffffffffffffffffffffffff16600160009054906101000a900473ffffffffffffffffffffffffffffffffffffffff166040516024016128d591906131d1565b6040516020818303038152906040527fbb9e4247000000000000000000000000000000000000000000000000000000007bffffffffffffffffffffffffffffffffffffffffffffffffffffffff19166020820180517bffffffffffffffffffffffffffffffffffffffffffffffffffffffff838183161783525050505060405161295f91906131ba565b6000604051808303816000865af19150503d806000811461299c576040519150601f19603f3d011682016040523d82523d6000602084013e6129a1565b606091505b509150506000818060200190518101906129bb9190612ad4565b905042811515600160009054906101000a900473ffffffffffffffffffffffffffffffffffffffff1673ffffffffffffffffffffffffffffffffffffffff167fc1bb1d1e99d1e8d2705ba85717226a3fd9a86e4de2284b00dfe6f33538d5249f60405160405180910390a4809250505090565b600081359050612a3d81613875565b92915050565b600081359050612a528161388c565b92915050565b600081519050612a67816138a3565b92915050565b600081359050612a7c816138ba565b92915050565b600060208284031215612a9457600080fd5b6000612aa284828501612a2e565b91505092915050565b600060208284031215612abd57600080fd5b6000612acb84828501612a43565b91505092915050565b600060208284031215612ae657600080fd5b6000612af484828501612a58565b91505092915050565b600060208284031215612b0f57600080fd5b6000612b1d84828501612a6d565b91505092915050565b612b2f816136a5565b82525050565b612b3e816136c9565b82525050565b612b4d816136d5565b82525050565b6000612b5e826135c3565b612b6881856135ce565b9350612b7881856020860161372e565b80840191505092915050565b612b8d8161371c565b82525050565b6000612ba06017836135d9565b91507f43616c6c6572206973206e6f7420746865206f776e65720000000000000000006000830152602082019050919050565b6000612be0601f836135d9565b91507f4c656e64657220616c726561647920766f74656420666f722066726175642e006000830152602082019050919050565b6000612c20601f836135d9565b91507f43616e6e6f74207265766f6b6520696e2063757272656e742073746174652e006000830152602082019050919050565b6000612c60601b836135d9565b91507f536166654d6174683a206164646974696f6e206f766572666c6f7700000000006000830152602082019050919050565b6000612ca06019836135d9565b91507f52657061796d656e74206973206e6f7420616c6c6f7765642e000000000000006000830152602082019050919050565b6000612ce0601e836135d9565b91507f496e73756666696369656e742072657061796d656e7420616d6f756e742e00006000830152602082019050919050565b6000612d206020836135d9565b91507f496e73756666696369656e742062616c616e636520666f7220726566756e642e6000830152602082019050919050565b6000612d606027836135d9565b91507f4e6f20696e766573746d656e7420746f207265717565737420696e746572657360008301527f742066726f6d2e000000000000000000000000000000000000000000000000006020830152604082019050919050565b6000612dc6601b836135d9565b91507f43616c6c6572206973206e6f742074686520626f72726f7765722e00000000006000830152602082019050919050565b6000612e06601e836135d9565b91507f536166654d6174683a207375627472616374696f6e206f766572666c6f7700006000830152602082019050919050565b6000612e46602a836135d9565b91507f496e73756666696369656e742062616c616e636520666f7220696e746572657360008301527f74207061796d656e742e000000000000000000000000000000000000000000006020830152604082019050919050565b6000612eac601a836135d9565b91507f536166654d6174683a206469766973696f6e206279207a65726f0000000000006000830152602082019050919050565b6000612eec6024836135d9565b91507f4c656e64657220616c726561647920766f74656420666f72207265766f63617460008301527f696f6e2e000000000000000000000000000000000000000000000000000000006020830152604082019050919050565b6000612f526019836135d9565b91507f496e76657374696e67206973206e6f7420616c6c6f7765642e000000000000006000830152602082019050919050565b6000612f926017836135d9565b91507f436f6e7472616374206973206e6f74206163746976652e0000000000000000006000830152602082019050919050565b6000612fd26019836135d9565b91507f436f6e7472616374206d61726b65642061732066726175642e000000000000006000830152602082019050919050565b60006130126017836135d9565b91507f43616c6c6572206973206e6f742061206c656e6465722e0000000000000000006000830152602082019050919050565b60006130526018836135d9565b91507f5265766f6b652074696d65206e6f7420726561636865642e00000000000000006000830152602082019050919050565b60006130926021836135d9565b91507f496e73756666696369656e742062616c616e636520746f20776974686472617760008301527f2e000000000000000000000000000000000000000000000000000000000000006020830152604082019050919050565b60006130f86018836135d9565b91507f436f6e7472616374206973206e6f74207265766f6b65642e00000000000000006000830152602082019050919050565b60006131386018836135d9565b91507f4e6f2072657061796d656e74732072656d61696e696e672e00000000000000006000830152602082019050919050565b6000613178601d836135d9565b91507f496e7465726573742063616e6e6f74206265207265717565737465642e0000006000830152602082019050919050565b6131b481613712565b82525050565b60006131c68284612b53565b915081905092915050565b60006020820190506131e66000830184612b26565b92915050565b600061016082019050613202600083018e612b26565b61320f602083018d612b44565b61321c604083018c6131ab565b613229606083018b6131ab565b613236608083018a6131ab565b61324360a08301896131ab565b61325060c08301886131ab565b61325d60e08301876131ab565b61326b610100830186612b84565b613279610120830185612b35565b6132876101408301846131ab565b9c9b505050505050505050505050565b60006020820190506132ac6000830184612b35565b92915050565b60006020820190506132c76000830184612b44565b92915050565b60006020820190506132e26000830184612b84565b92915050565b6000602082019050818103600083015261330181612b93565b9050919050565b6000602082019050818103600083015261332181612bd3565b9050919050565b6000602082019050818103600083015261334181612c13565b9050919050565b6000602082019050818103600083015261336181612c53565b9050919050565b6000602082019050818103600083015261338181612c93565b9050919050565b600060208201905081810360008301526133a181612cd3565b9050919050565b600060208201905081810360008301526133c181612d13565b9050919050565b600060208201905081810360008301526133e181612d53565b9050919050565b6000602082019050818103600083015261340181612db9565b9050919050565b6000602082019050818103600083015261342181612df9565b9050919050565b6000602082019050818103600083015261344181612e39565b9050919050565b6000602082019050818103600083015261346181612e9f565b9050919050565b6000602082019050818103600083015261348181612edf565b9050919050565b600060208201905081810360008301526134a181612f45565b9050919050565b600060208201905081810360008301526134c181612f85565b9050919050565b600060208201905081810360008301526134e181612fc5565b9050919050565b6000602082019050818103600083015261350181613005565b9050919050565b6000602082019050818103600083015261352181613045565b9050919050565b6000602082019050818103600083015261354181613085565b9050919050565b60006020820190508181036000830152613561816130eb565b9050919050565b600060208201905081810360008301526135818161312b565b9050919050565b600060208201905081810360008301526135a18161316b565b9050919050565b60006020820190506135bd60008301846131ab565b92915050565b600081519050919050565b600081905092915050565b600082825260208201905092915050565b60006135f582613712565b915061360083613712565b9250827fffffffffffffffffffffffffffffffffffffffffffffffffffffffffffffffff03821115613635576136346137d4565b5b828201905092915050565b600061364b82613712565b915061365683613712565b92508261366657613665613803565b5b828204905092915050565b600061367c82613712565b915061368783613712565b92508282101561369a576136996137d4565b5b828203905092915050565b60006136b0826136f2565b9050919050565b60006136c2826136f2565b9050919050565b60008115159050919050565b6000819050919050565b60008190506136ed82613861565b919050565b600073ffffffffffffffffffffffffffffffffffffffff82169050919050565b6000819050919050565b6000613727826136df565b9050919050565b60005b8381101561374c578082015181840152602081019050613731565b8381111561375b576000848401525b50505050565b600061376c82613712565b915060008214156137805761377f6137d4565b5b600182039050919050565b600061379682613712565b91507fffffffffffffffffffffffffffffffffffffffffffffffffffffffffffffffff8214156137c9576137c86137d4565b5b600182019050919050565b7f4e487b7100000000000000000000000000000000000000000000000000000000600052601160045260246000fd5b7f4e487b7100000000000000000000000000000000000000000000000000000000600052601260045260246000fd5b7f4e487b7100000000000000000000000000000000000000000000000000000000600052602160045260246000fd5b6006811061387257613871613832565b5b50565b61387e816136a5565b811461388957600080fd5b50565b613895816136b7565b81146138a057600080fd5b50565b6138ac816136c9565b81146138b757600080fd5b50565b600681106138c757600080fd5b5056fea2646970667358221220098ef8455e6e27b479dcac5c9bb4b521d08a46030b18e88616d667a9f9179eab64736f6c63430008000033a2646970667358221220f05771a1b4f1e129dd7e2ce04c3eef34c124c3179636068a3c5c0e90f6293e2e64736f6c63430008000033",
  "immutableReferences": {},
  "source": "// SPDX-License-Identifier: MIT\npragma solidity ^0.8.0;\n\nimport './Credit.sol';\nimport './common/Destructible.sol';\n\n/** @title Peer to Peer Lending contract.\n * Inherits the Destructible contract.\n */\ncontract PeerToPeerLending is Destructible {\n    using SafeMath for uint;\n\n    /** @dev User structure */\n    struct User {\n        bool credited;\n        address activeCredit;\n        bool fraudStatus;\n        address[] allCredits;\n    }\n\n    mapping(address => User) public users;\n    address[] public credits;\n\n    /** @dev Events */\n    event LogCreditCreated(address indexed creditAddress, address indexed borrower, uint indexed timestamp);\n    event LogCreditStateChanged(address indexed creditAddress, Credit.State indexed state, uint indexed timestamp);\n    event LogCreditActiveChanged(address indexed creditAddress, bool indexed active, uint indexed timestamp);\n    event LogUserSetFraud(address indexed borrower, bool fraudStatus, uint timestamp);\n\n    /** @dev Constructor */\n    constructor() Destructible() { }\n\n    /**\n     * @dev Credit application function.\n     * @param requestedAmount Requested funding amount in wei.\n     * @param repaymentsCount Requested repayments count.\n     * @param interest The interest rate for the credit.\n     * @param creditDescription The description of the funding.\n     * @return _credit The address of the newly created credit contract.\n     */\n    function applyForCredit(\n        uint requestedAmount, \n        uint repaymentsCount, \n        uint interest, \n        bytes32 creditDescription\n    ) \n        public \n        returns(address _credit) \n    {\n        require(!users[msg.sender].credited, \"User already credited\");\n        require(!users[msg.sender].fraudStatus, \"User is marked as fraud\");\n        require(users[msg.sender].activeCredit == address(0), \"User already has an active credit\");\n\n        // Create a new Credit contract instance\n        Credit credit = new Credit(requestedAmount, repaymentsCount, interest, creditDescription);\n        users[msg.sender].credited = true;\n        users[msg.sender].activeCredit = address(credit);\n        credits.push(address(credit));\n        users[msg.sender].allCredits.push(address(credit));\n\n        emit LogCreditCreated(address(credit), msg.sender, block.timestamp);\n\n        return address(credit);\n    }\n\n    /** @dev Get the list of all credits.\n     * @return List of credit addresses.\n     */\n    function getCredits() public view returns (address[] memory) {\n        return credits;\n    }\n\n    /** @dev Get all credits associated with the caller.\n     * @return Array of the caller's credit addresses.\n     */\n    function getUserCredits() public view returns (address[] memory) {\n        return users[msg.sender].allCredits;\n    }\n\n    /** @dev Sets a user's fraud status to true.\n     * @param _borrower The user's address.\n     * @return Updated fraud status.\n     */\n    function setFraudStatus(address _borrower) external onlyOwner returns (bool) {\n        users[_borrower].fraudStatus = true;\n        emit LogUserSetFraud(_borrower, true, block.timestamp);\n        return true;\n    }\n\n    /** @dev Change the state of a credit.\n     * @param _credit The credit's address.\n     * @param state New state to set.\n     */\n    function changeCreditState(Credit _credit, Credit.State state) public onlyOwner {\n        _credit.changeState(state);\n        emit LogCreditStateChanged(address(_credit), state, block.timestamp);\n    }\n\n    /** @dev Toggle the active state of a credit.\n     * @param _credit The credit's address.\n     */\n    function toggleCreditActiveState(Credit _credit) public onlyOwner {\n        bool active = _credit.toggleActive();\n        emit LogCreditActiveChanged(address(_credit), active, block.timestamp);\n    }\n}\n\n",
  "sourcePath": "/home/vijay/Desktop/p2p-lending/smart-contracts/contracts/PeerToPeerLending.sol",
  "compiler": {
    "name": "solc",
    "version": "0.8.0+commit.c7dfd78e.Emscripten.clang"
  },
  "schemaVersion": "3.4.16",
  "updatedAt": "2024-08-28T08:32:26.268Z",
  "networkType": "ethereum",
  "devdoc": {
    "events": {
      "LogCreditCreated(address,address,uint256)": {
        "details": "Events "
      }
    },
    "kind": "dev",
    "methods": {
      "applyForCredit(uint256,uint256,uint256,bytes32)": {
        "details": "Credit application function.",
        "params": {
          "creditDescription": "The description of the funding.",
          "interest": "The interest rate for the credit.",
          "repaymentsCount": "Requested repayments count.",
          "requestedAmount": "Requested funding amount in wei."
        },
        "returns": {
          "_credit": "The address of the newly created credit contract."
        }
      },
      "changeCreditState(address,uint8)": {
        "details": "Change the state of a credit.",
        "params": {
          "_credit": "The credit's address.",
          "state": "New state to set."
        }
      },
      "constructor": {
        "details": "Constructor "
      },
      "destroy()": {
        "details": "Destroys the contract and sends remaining funds to the owner. "
      },
      "destroyAndSend(address)": {
        "details": "Destroys the contract and sends remaining funds to a specified address.",
        "params": {
          "_recipient": "The address to receive the remaining funds."
        }
      },
      "getCredits()": {
        "details": "Get the list of all credits.",
        "returns": {
          "_0": "List of credit addresses."
        }
      },
      "getUserCredits()": {
        "details": "Get all credits associated with the caller.",
        "returns": {
          "_0": "Array of the caller's credit addresses."
        }
      },
      "setFraudStatus(address)": {
        "details": "Sets a user's fraud status to true.",
        "params": {
          "_borrower": "The user's address."
        },
        "returns": {
          "_0": "Updated fraud status."
        }
      },
      "toggleCreditActiveState(address)": {
        "details": "Toggle the active state of a credit.",
        "params": {
          "_credit": "The credit's address."
        }
      }
    },
    "title": "Peer to Peer Lending contract. Inherits the Destructible contract.",
    "version": 1
  },
  "userdoc": {
    "kind": "user",
    "methods": {},
    "version": 1
  }
}